:020000040000FA
:060000000A128A110C280F
:10000800FE00030EF0000A08F1000A128A15E72F15
:100018000A128A110F28FA01FB0183120313EA015D
:10002800EB01EC0183160313A001A101A201A301B6
:10003800A401A501A601A701A801A90183010A122B
:100048008A11382EFF0000308A007F0882072B288B
:100058000A128A15EE2F8316031329080A128A1129
:1000680064250A128A11023083160313AC00453046
:10007800AB00A930AA00AA0B3F28AB0B3F28AC0B5A
:100088003F28A2300A128A11E4270A128A11023084
:1000980083160313AC004530AB00A930AA00AA0BA5
:1000A8005328AB0B5328AC0B53287B08831203133C
:1000B8009900023083160313AC004530AB00A93019
:1000C800AA00AA0B6528AB0B6528AC0B65282E3057
:1000D800831203139900023083160313AC004530D2
:1000E800AB00A930AA00AA0B7728AB0B7728AC0B7A
:1000F80077287A08831203139900023083160313B2
:10010800AC004530AB00A930AA00AA0B8928AB0B7C
:100118008928AC0B8928831203136C0899000230D4
:1001280083160313AC004530AB00A930AA00AA0B14
:100138009B28AB0B9B28AC0B9B28D9300A128A1141
:10014800E4270A128A11023083160313AC004530E3
:10015800AB00A930AA00AA0BAF28AB0BAF28AC0B99
:10016800AF28A0300A128A11E4270A128A118316CE
:10017800031328080A128A1164250A128A11023008
:1001880083160313AC004530AB00A930AA00AA0BB4
:10019800CB28AB0BCB28AC0BCB2883300A128A11A7
:1001A800E4270A128A11023083160313AC00453083
:1001B800AB00A930AA00AA0BDF28AB0BDF28AC0BD9
:1001C800DF287B0883120313990002308316031378
:1001D800AC004530AB00A930AA00AA0BF128AB0B44
:1001E800F128AC0BF1282E3083120313990002304A
:1001F80083160313AC004530AB00A930AA00AA0B44
:100208000329AB0B0329AC0B03297A0883120313C8
:100218009900023083160313AC004530AB00A930B7
:10022800AA00AA0B1529AB0B1529AC0B15298312AB
:1002380003136C089900023083160313AC00453091
:10024800AB00A930AA00AA0B2729AB0B2729AC0BB6
:100258002729D9300A128A11E4270A128A11023092
:1002680083160313AC004530AB00A930AA00AA0BD3
:100278003B29AB0B3B29AC0B3B29A0300A128A1156
:10028800E4270A128A1149300A128A11E4270A124D
:100298008A11023083160313AC004530AB00A93035
:1002A800AA00AA0B5529AB0B5529AC0B55290B30C5
:1002B8000A128A11E4270A128A11831203138C1E68
:1002C8006629672961291A08D03E83160313AA00F4
:1002D8002A0883120313EA0033301A020318752917
:1002E800762961298C1E79297A2976291A08D03E1F
:1002F80083160313AA002A08A700023083120313E7
:100308006A06031D882989298F2936301A0203189D
:100318008E298F2976298C1E922993298F291A08CC
:10032800D03E83160313AA002A08A60002308312BF
:1003380003136A06031DA129A229B22905308316D1
:1003480003132706031DA929AA29B22936308312C7
:1003580003131A020318B129B2298F2983126A08D4
:1003680083160313AA00AB012A0883120313BA00E9
:10037800831603132B0883120313BB00831603137E
:100388002708AC00AD012C0883120313BC008316A8
:1003980003132D0883120313BD000A128A11332791
:1003A8000A128A11831203133A0883160313AE0044
:1003B8002E08A4002408AA00AB012A0883120313FC
:1003C800BA00831603132B0883120313BB0083168A
:1003D80003132608AC00AD012C0883120313BC00DC
:1003E800831603132D0883120313BD000A128A1102
:1003F80033270A128A11831203133B088316031347
:10040800A100831203133A0883160313A0000230D5
:1004180083160313AC004530AB00A930AA00AA0B21
:10042800132AAB0B132AAC0B132A831603132108C8
:1004380083120313B20083160313200883120313D5
:10044800B100C0300A128A11E4270A128A11080082
:1004580083120313B0004B2B25302F060319352ABE
:10046800362A5C2A300A84008313000803193D2ABF
:100478003E2A4D2A2F08A8002808F200300A8400D6
:1004880000080A128A1126200A128A1183120313FD
:100498002F2A2F08A80030088400000884002808A4
:1004A80080000130A80030088400280880072F2A1F
:1004B800AB010130A607FF30260784000A128A1113
:1004C80000240A128A11AF00A800A9012908003ADD
:1004D80003196F2A4B2B2808003A03195F2B643A3B
:1004E80003197A2A0D3A03197A2A4B2B2708840014
:1004F80083130008A8000230800728088400000839
:10050800AD00840A0008AE00AE1F8B2A8C2A952AFB
:100518000330A8002808AB04AD09AE09AD0A0319D9
:10052800AE0AAF01AF0A2F08A8002807013E8400D1
:100538000A128A1100240A128A11A9000A128A11C1
:1005480000240A128A11AA002A082E02031DAE2AC4
:1005580029082D020318B12AB22AB32ABD2A01306C
:10056800A8002808AF0705302F06031DBC2ABD2A9E
:10057800972A2B0803390319C22AC32AE62A300A04
:100588008400831300080319CA2ACB2AD82A2D30DD
:10059800A8002808F200300A840000080A128A110C
:1005A80026200A128A11E62A2D30A8003008840075
:1005B80000088400280880000130A8003008840062
:1005C80028088007831203132F08A8002808AC0006
:1005D800402B0A30A0000030A1002C08A8002807F2
:1005E800013E84000A128A1100240A128A11F200BC
:1005F8000A128A1100240A128A11F3002E08F50043
:100608002D08F4000A128A11EF260A128A117308BB
:1006180083120313A3007208A2000A128A1170271A
:100628000A128A11831203132008303EA9002908F0
:10063800AF00300A8400831300080319242B252BEC
:10064800322B2F08A8002808F200300A840000087E
:100658000A128A1126200A128A11402B2F08A80094
:100668003008840000088400280880000130A800B1
:100678003008840028088007FF3083120313A8007D
:100688002808AC072C0A031D4A2B4B2BED2A0130F6
:1006980083120313A607FF30260784000A128A1163
:1006A80000240A128A11A8002808AF002F08031D89
:1006B8005E2B5F2B302AA601A7010800F4007408FE
:1006C800F3007308F5006C2B0130F3007308F5078D
:1006D8007508840083130008031D732B742B682B83
:1006E8007D2B0130F3007308F5070130F300730820
:1006F800F207720884000008F30075088400730884
:1007080080000008031D892B8A2B752B0800F60131
:10071800F701721C902B912B972B7408F60703187E
:10072800F70A7508F70701300310F40DF50DFF3EC1
:10073800031D982B01300310F30CF20CFF3E031D30
:100748009F2B72087304031DAA2BAB2B8D2B7708E4
:10075800F3007608F200080083120313B600360887
:10076800B4003408B800B9013230B4003408B70016
:100778003108B4003408A6003730B5003508A700A2
:1007880038300A128A112C220A128A118312031392
:1007980038088400831380010800F50083160313CA
:1007A8008712751DD82BD92BDD2B7408940087155B
:1007B800E12B72087404940087117508730483127E
:1007C800031394000800F300F2013A30730203188F
:1007D800EE2BEF2BF72B30307302031CF42BF52B89
:1007E800F72BF201F20A720C080083160313141C8B
:1007F800FE2BFF2BF92B080004308A000408840A1A
:1008080082070034013400340A340034643400347C
:10081800E83403341034273444346534623465349E
:10082800203465347334633472346934623469341F
:1008380072342034743472346534733420346E3432
:1008480075346D34653472346F34733420347134D4
:1008580075346534203466346F3472346D346534DD
:100868006E34203475346E342034763461346C340C
:100878006F347234203465346E34743472346534B1
:10088800203430342034793420343234353435341B
:100898000D34003449346E3467347234653473343B
:1008A80061347234203465346C34203476346134E5
:1008B8006C346F3472342034643465346C342034CE
:1008C80063346F346E347434613464346F34723426
:1008D8003A3420342834443465346234653420345E
:1008E800733465347234203465346E34743472343D
:1008F800653420343034203479342034323435347B
:10090800353429340D3400340D34203456346134F0
:100918006C346F3472342034643465346C3420346D
:1009280050346F34743465346E34633469346F34DE
:100938006D346534743472346F34203432343A345C
:1009480020340D3400340D342034563461346C3482
:100958006F3472342034643465346C342034503449
:100968006F34743465346E34633469346F346D3481
:100978006534743472346F34203431343A340D347D
:10098800003445346C3420346E3475346D34653439
:1009980072346F34203465346C34653467346934A8
:1009A80064346F342034653473343A342034253455
:1009B8006434003420345634003483120313A50001
:1009C800E92C0130A0002008A50725088400203064
:1009D800831300060319F12CF22CE52C250884005A
:1009E800093000060319F92CFA2CE52CA301A401FF
:1009F800A201250884002D300006031D042D052DB5
:100A08000E2D0130A0002008A2070130A000200808
:100A1800A507402D250884002B300006031D152D41
:100A2800162D402D0130A0002008A507402D831267
:100A38000313250884002408F3002308F2000A3071
:100A4800F4000030F5000A128A118B230A128A1169
:100A580083130008720783120313A00000300318E1
:100A680001307307A1002008D03EA3002108031815
:100A7800013EFF3EA400162D2508840000080A1236
:100A88008A11E7230A128A1103184B2D4C2D1B2DAE
:100A98008312031322080319522D532D5F2D2309A6
:100AA800A0002409A100A00A0319A10A2008F8003F
:100AB8002108F900632D2408F9002308F80008002C
:100AC800F9003230F2000030F30079088312031382
:100AD800A400A5012408F4002508F5000A128A11CB
:100AE800CF250A128A11720883120313A60026085A
:100AF800FB006430F2000030F3007908A400A5017F
:100B08002408F4002508F5000A128A1196260A120C
:100B18008A11720883120313A6002608EB000A3014
:100B2800F2000030F3006B08A400A5012408F400CB
:100B38002508F5000A128A11CF250A128A117208AF
:100B480083120313A6002608FA000A30F2000030C8
:100B5800F3006B08A400A5012408F4002508F5009B
:100B68000A128A1196260A128A117208831203132E
:100B7800A6002608EC007B08303EA4002408FB00F1
:100B88007A08303EA4002408FA006C08303EA4001D
:100B98002408EC00080083120313A101F31FD52DCC
:100BA800D62DDD2DF209F309F20A0319F30AA10182
:100BB800A10AF51FE02DE12DEA2DF409F509F40A43
:100BC8000319F50A0130F6007608A106A201A3016F
:100BD800720873040319F12DF22D292EA001A00A21
:100BE800002E01300310F20DF30DFF3E031DF62D0C
:100BF8000130F6007608A007F31F032E042EF52D0A
:100C080001300310A20DA30DFF3E031D052E73082E
:100C18007502031D112E72087402031C142E152E62
:100C28001C2E7208F4027308031CF503F502221443
:100C380001300310F30CF20CFF3E031D1D2E013092
:100C4800A002031D282E292E042E210803192D2E5B
:100C58002E2E332EA209A309A20A0319A30A2308D8
:100C6800F3002208F20008000A128A11AC270A12BF
:100C78008A11831203130711C73083120313E90083
:100C8800452EE90B442E482E0A300A128A15E12710
:100C98000A128A110A128A15F7270A128A11831270
:100CA8000313E900690883160313A900C7308312E8
:100CB8000313E9005F2EE90B5E2E622E0A300A123A
:100CC8008A15E1270A128A110A128A15F7270A12C9
:100CD8008A1183120313E900690883160313A80015
:100CE800C73083120313E900792EE90B782E7C2E86
:100CF800C73083120313E900812EE90B802E842E5E
:100D08008312031307150A128A112F200A128A1157
:100D18008316031320088312031386003D2E0A123C
:100D28008A110C28F801F51F9A2E9B2EA22EF40981
:100D3800F509F40A0319F50AF801F80AF31FA52EB4
:100D4800A62EAB2EF209F309F20A0319F30A720868
:100D580073040319B02EB12EE02EF701F70ABF2E47
:100D680001300310F20DF30DFF3E031DB52E0130C7
:100D7800F6007608F707F31FC22EC32EB42E7308A9
:100D88007502031DC92E72087402031CCC2ECD2EC9
:100D9800D32E7208F4027308031CF503F502013020
:100DA8000310F30CF20CFF3E031DD42E0130F702A2
:100DB800031DDF2EE02EC32E78080319E42EE52E3E
:100DC800EA2EF409F509F40A0319F50A7508F3007F
:100DD8007408F2000800F701F80172087304031997
:100DE800F62EF72E2E2FF901F90A052F01300310E0
:100DF800F20DF30DFF3E031DFB2E0130F6007608C1
:100E0800F907F31F082F092FFA2E01300310F70DE9
:100E1800F80DFF3E031D0A2F73087502031D162FD8
:100E280072087402031C192F1A2F212F7208F4025A
:100E38007308031CF503F502771401300310F30C53
:100E4800F20CFF3E031D222F0130F902031D2D2F46
:100E58002E2F092F7808F3007708F2000800D63003
:100E680083120313BE003E08B1003B08B3003A08E2
:100E7800B20053300A128A11B0230A128A11D630EE
:100E880083120313BE003E08B1003D08B3003C08BE
:100E9800B2003F300A128A11B0230A128A113F3079
:100EA80083120313BE003E08F20053300A128A115F
:100EB80062230A128A1153300A128A11E1240A1293
:100EC8008A11790883120313E8007808E700680894
:100ED800BB006708BA000800831203132008210426
:100EE8000319772F782FA72FA501A50A862F013080
:100EF8000310A00DA10DFF3E031D7C2F0130A4009F
:100F08002408A507A11F892F8A2F7B2F21082302D8
:100F1800031D902F20082202031C932F942F9A2F31
:100F28002008A2022108031CA303A3020130031016
:100F3800A10CA00CFF3E031D9B2F0130A502031D31
:100F4800A62FA72F8A2F2308A1002208A000080097
:100F58008316031788018901831603130711860175
:100F6800831203138601870188010715F201F30133
:100F7800F40120300A128A11D1230A128A11831629
:100F880003131812181583160317871119308316BF
:100F98000313990001309A0083120313981718134A
:100FA80018168316031318139816831203138C123A
:100FB8000C12831603130F128F160F170F14080045
:100FC80083120313B600B7010130B3003308B80029
:100FD8003130B3003308B5003608B3003308A60033
:100FE8003530B4003408A70037300A128A112C2291
:060FF8000A128A11080034
:101FC200F2007208831203139300080071088A005A
:101FD200700E8300FE0E7E0E0900831203130C1E88
:101FE200F32FF42FEE2F7208990008000A128A11BB
:0E1FF200F9230A128A1583120313130808003C
:04400E00D420FF3F7C
:00000001FF
